:020000040000FA
:10000000A8020020ED010000F5010000F70100004A
:10001000F9010000FB010000FD01000000000000EC
:10002000000000000000000000000000FF010000D0
:1000300001020000000000000302000005020000B1
:10004000070200000702000007020000070200008C
:10005000070200000702000007020000070200007C
:10006000950C0000070200000702000007020000D4
:1000700007020000AD0C00000702000007020000AC
:10008000070200000702000007020000070200004C
:10009000070200000702000007020000070200003C
:1000A00007020000510C0000890C0000070200004C
:1000B000070200000702000007020000070200001C
:1000C000070200000702000007020000C10A00004A
:1000D00007020000070200000702000007020000FC
:1000E0000702000000000000000000000000000007
:1000F0000000000000000000000000000000000000
:1001000000000000000000000000000000000000EF
:1001100000000000000000000000000000000000DF
:1001200000000000000000000000000000000000CF
:1001300000000000000000000000000000000000BF
:100140000000000000F002F800F041F80AA090E87A
:10015000000C82448344AAF10107DA4501D100F082
:1001600036F8AFF2090EBAE80F0013F0010F18BF0E
:10017000FB1A43F001031847BC110000DC1100001A
:10018000103A24BF78C878C1FAD8520724BF30C8C3
:1001900030C144BF04680C60704700000023002495
:1001A00000250026103A28BF78C1FBD8520728BF87
:1001B00030C148BF0B607047642900F07780002091
:1001C00070471FB501F0B1F81FBD10B510BD00F0AC
:1001D00035F91146FFF7F5FF01F01CF800F053F96F
:1001E00003B4FFF7F2FF03BC00F0CEFF09488047DD
:1001F00009480047FEE7FEE7FEE7FEE7FEE7FEE709
:10020000FEE7FEE7FEE7FEE704480549034A054B23
:1002100070470000F10B000045010000A80000201D
:10022000A8020020A8000020704700000FB4044975
:1002300010B503AA029800F0D3F810BC5DF814FBC7
:10024000040000202DE9F0410E4604460020206203
:100250002046E168884730B3252805D0D4E901213C
:100260009047206A401CF2E7E16820460027884753
:10027000050018D0A5F14100192802D820354FF407
:1002800000673246294620462760FFF795FF40B1B8
:10029000012804D0F61D26F007060836D8E7361DDB
:1002A000D6E72846DAE7206ABDE8F0812DE9F0417B
:1002B0000646002410687529314616A510D0AFF304
:1002C0000080002802DA404213A507E031688A075F
:1002D00001D512A502E0490704D511A5012401E0CA
:1002E000AFF3008000210A2206F1240709E0B0FBE9
:1002F000F2FCB0FBF2F302FB1C00303078541846DD
:10030000491C0028F3D123462A463046BDE8F04177
:1003100000F00CB8000000002D0000002B000000D1
:100320002000000070477047704770472DE9F04784
:100330000D4699469246044600F124080168880655
:1003400004D5E06921F01001216000E00120A842FD
:1003500001DD471B00E00027A1697A1902EB0900C3
:10036000081AA0612078C00602D42046AFF30080AE
:10037000002608E0D4E901211AF806009047206A17
:10038000401C761C20624E45F4DB2078C0060AD55E
:100390002046AFF3008006E0D4E9012130209047E9
:1003A000206A401C2062381EA7F10107F4DC07E038
:1003B000D4E9012118F805009047206A401C20620A
:1003C000281EA5F10105F3DC2046AFF3008020785C
:1003D000000602D50220BDE8F0870120FBE70000FF
:1003E000074B70B50D467B4400F011F804462846D3
:1003F00000F020F810B14FF0FF3070BD204670BD06
:10040000170E000001694A1C02610878704700B5A8
:100410008FB0CDE901310021059105497944CDE93D
:10042000031011466846FFF70DFF0FB000BD000036
:10043000E5FFFFFF007B00F080007047754600F08D
:100440002BF8AE4605006946534620F00700854666
:1004500018B020B5FFF7D8FEBDE820404FF00006E9
:100460004FF000074FF000084FF0000B21F007019C
:10047000AC46ACE8C009ACE8C009ACE8C009ACE8DF
:10048000C0098D46704710B50446AFF30080204682
:10049000BDE81040FFF7A4BE0048704748000020A8
:1004A00070B5524E82B03068514D00F4E020B0F586
:1004B000403F08BF4F4C1AD00EDC002808BF4E4CFE
:1004C00015D0B0F5803F08BF4C4C10D0B0F5003FC0
:1004D00008BF4B4C0BD009E0B0F5802F08BF494C4A
:1004E00005D0B0F5A02F08BF2C4600D000246B46E5
:1004F00001AA0021032000F01DFB0198002850D024
:10050000414B18694228306842D9C0F3090111F4FF
:10051000007F18BF41F47E4000D001B2B9B33B4820
:10052000AC4241D11A69422A3ED990F8D80000283D
:10053000009819BF90ED0F0A426A90ED070A4268D1
:10054000186901EE101A4228C2F54070B8EEC11ABF
:10055000B7EE002AF0EE420A60EE011A01EE100A30
:10056000B8EEC11A40EE010A2AD902B081EEA00A03
:10057000F0EE420A70EEC00A00EE104AB8EE400AF1
:1005800080EE201ABCEEC10A10EE100A70BD08E021
:10059000C0F30C0111F4805F18BF41F47040BCD16E
:1005A000BCE702B0204670BD90F8D8000028009843
:1005B00019BF90ED0E0A026A90ED060A0268BFE7C5
:1005C000B2EE000A02B020EE801AF0EE420A81EE8E
:1005D000810A70EEC00A00EE104AB8EE400A80EEC2
:1005E000201ABCEEC10A10EE100A70BD04040140CE
:1005F000006CDC02001BB70060E31600C0C62D00D3
:10060000808D5B0000366E010010200000802042CB
:1006100004490868096800F0070001F4E0210903B3
:1006200000F03ABC08040140DFF8DCC030B446F604
:100630005A13CCF80030354D354BDFF8D8C00124C3
:1006400004283DD007DC012808BF33480BD0334BCA
:10065000022817D053E0324B082821D01A1DB0F1E0
:10066000805F3CD04BE00378002BFCD0120942EABB
:1006700001212A6822F0072211432960017800290C
:10068000FCD03CE018780028FCD041EA1230296800
:1006900021F007110843286018780028FCD02EE0CC
:1006A00018780028FCD042EA0110296821F0700176
:1006B00021F0E0410843286018780028FCD01EE0B3
:1006C00018780028FCD0100A40EA0110296821F0AF
:1006D00070110843286018780028FCD00FE01078CB
:1006E0000028FCD0002904BF00208CF8300103D082
:1006F000022908BF8CF8304110780028FCD08CF813
:10070000004030BC70470000000401400804014074
:10071000E886204200802042E0862042E486204293
:10072000EC862042014AC2E9001070471000002008
:10073000002100F001B800002DE9F0470C464049C7
:10074000064646F65A10086000F0EEF900F0010780
:10075000012000F0D9F93B4802683B48A2F574211A
:10076000A1F51071814228D93848111838488142C2
:1007700098BF4FF4801221D936481118364881426B
:1007800098BF4FF4001219D934491144814298BFDF
:100790004FF4401212D932491144814298BF4FF4AC
:1007A00080020BD92F491144814203D92E491144AB
:1007B000814202D84FF4A00200E00022002C14BFB6
:1007C000012500250121294B83F8C0112848D0F8C4
:1007D00000C02CF4E00C4CEA020CC0F800C04FF052
:1007E0000008002E14BF83F8E41183F8E48183F835
:1007F000E011DFF880C09CF80000002818BF1E48F8
:1008000008D00DB1641E05D001709CF80090B9F1BC
:10081000000FF6D166B11970384600F07DF925B1A8
:10082000002C04BF0020BDE8F0870120BDE8F08760
:10083000002A14BF83F8C01183F8C081EBE70000E1
:100840000004014010000020C0C62D00FFF6C2FFCA
:10085000FF083D00FFED85FFFF117A00FFDB0BFF76
:10086000FFC991FEFFB717FEFFA59DFD0080204246
:100870000C04014004892042048A2042002100F037
:1008800001B800002DE9F0470C462649064646F619
:100890005A10086000F048F900F00107012000F04C
:1008A00033F9B6F5007F0CBF01200020002C14BFE7
:1008B000012500251C4BDFF874C00121002818BF5A
:1008C0008CF8A41106D11A6842F003021A600022C3
:1008D0008CF8A4218CF8A011DFF8548098F800203F
:1008E000002A18BF134A08D00DB1641E05D011703C
:1008F00098F80090B9F1000FF6D120B9186820F0EF
:100900000300304318608CF80010384600F004F9FA
:1009100025B1002C04BF0020BDE8F0870120BDE810
:10092000F0870000000401400C04014000802042D8
:1009300000892042008A2042094A48B1012818BF94
:100940007047506920F4704040EA013050617047B0
:10095000106920F4704040EA0130106170470000D7
:1009600000100140034A52F82000828B22EA010164
:1009700081837047180000200B4951F820108A8BA2
:100980000C280FD2DFE800F00E060906090609065A
:100990000906090B887E10407047887E00E0488B6E
:1009A000104070470020704718000020104B53F88B
:1009B000200083880B438380012A0BD0022A10D0A9
:1009C000032A18BF704742890A4342818289114332
:1009D0008181704742890A434281828922EA01016A
:1009E000F6E742898A4342818289114381817047B7
:1009F00018000020034A52F82000428851404180EC
:100A000070470000180000200249002081F84000D3
:100A100070470000008009420249012081F840002F
:100A2000704700000080094211480068C0B21028D9
:100A300019D008DC0A2816D2DFE800F015171515C2
:100A400015171515151718280DD006DC11280CD010
:100A5000142808D0152808D005E0192805D020282A
:100A600004BF02207047002070470120704700003B
:100A7000000001400F480068C0B2102817D008DC01
:100A80000A2814D2DFE800F0131313130F0F131307
:100A90001111113809280AD2DFE800F00909090507
:100AA0000509090707000120704702207047002050
:100AB00070470000000001400122002100F072BADE
:100AC00070B50120FFF758FF84B221460120FFF7DF
:100AD00049FF002041F28832401C80B29042FBD393
:100AE000084DA00703D5287908B9FFF795FFE00660
:100AF00006D5287C002803D1BDE87040FFF784BFED
:100B000070BD00000080094202494A6822EA0000E4
:100B100048607047003004E002494A68104348606A
:100B200070470000003004E0014840687047000052
:100B3000003004E030B4DFF844C0114D0BE08442D3
:100B400003D1002918BF491E0BD0DCF804400CEB80
:100B5000840C0CF1080CDCF80040844218BFAC4255
:100B6000EDD1844206BFDCF8040080000020106054
:100B700008BF0CF10800186030BC7047041020005A
:100B80001DE1D00B184910B54FF4B5400880012283
:100B90000C210B20FFF70AFF012203210B20FFF796
:100BA00005FF12494FF40040FFF7BCFD0120FFF79D
:100BB00083FF01210020FFF7BFFE01210846FFF758
:100BC000BBFE0020FFF7B4FD0320FFF757FE002215
:100BD00005210220FFF728FD00220521BDE8104075
:100BE0000820FFF721BD00000C480040006CDC022B
:100BF0001248016841F47001016011494FF4B54099
:100C000008801049802048610F4846F65A1101605B
:100C1000021D4FF480311160111D0A6822F0071285
:100C2000D21C0A60002101600848016921F03001EE
:100C30000161416921F030014161704788ED00E0B8
:100C40000C480040003004E0000401400010014066
:100C500010B5064800F092F805480178491CC9B261
:100C60000170BDE8104003A0FFF7E0BA00C00040EB
:100C70000C0000202564E7A792E8BF87E58EBBE45F
:100C8000BA860D0A0D0A0000014800F077B800008E
:100C900020C0004010B50221480700F074F801217F
:100CA000BDE810400846FFF7A5BE000070B5234C14
:100CB000207800062FD4224E304600F0C2F80025DE
:100CC00068B1304600F06DF81E4880F884502178F5
:100CD000480604D5C84380061ED0491C2170042153
:100CE000304600F09BF8002815D00421304600F073
:100CF0004AF82078400605D508220421304600F045
:100D0000A9F880B125706580304600F050F8207851
:100D100040F04000207070BD41F0800020704FF620
:100D2000FF706080DBE72078042140F080002070B5
:100D3000304600F06AF8608070BD000008000020B6
:100D4000000800400000014230B50D46044687B05F
:100D5000012220210220FFF729FE4FF40070CDE987
:100D600000050620CDE90240C020CDE90404694613
:100D70004FF0804000F021F807B030BDC16841F06D
:100D80000101C16070474FF0FF3202EB5101C9B25F
:100D9000002200EB4100400100F1844080F8402037
:100DA00070470021400100F184400170704701212B
:100DB000400100F184400172704770B50446888894
:100DC0000D4681B2204600F051FA208820F49B7035
:100DD00020F4007020802088298814310843208066
:100DE00028896082608820F0F0006080A8894FF038
:100DF000FF3101EB5000C0B204EB400041882A8A69
:100E000011434180A98A418270BD4FF0FF3202EB4D
:100E10005101C9B200EB4100408A70474FF0FF32E8
:100E200002EB5101C9B200EB4100410101F18441E3
:100E300091F8501000291ABF408800F003000020EC
:100E40007047018811F0020F1ABF008800F00100FE
:100E5000002070474FF0FF3303EB5101C9B200EBA4
:100E600041004088104018BF012070474FF0FF3309
:100E700003EB5101C9B200EB4100428270474201CD
:100E800002F1844292F844331BB992F88433002B68
:100E9000FBD0C181704700002DE9F04731F070426E
:100EA00016D10917082913D2DFE801F01204060849
:100EB0000A0C0E1002240CE004240AE0082408E0C6
:100EC000102406E0202404E0402402E0802400E016
:100ED00001240126DFF8AC902B492C4F2C4BF50355
:100EE000DFF8B08046F65A124FF4FA3C062846D294
:100EF000DFE800F003333640431B274890F800A09A
:100F0000BAF1000F0BD0C9F800200A6842F00102C4
:100F10000A603E70007810B1187838B322E0D8F833
:100F20000400B0FBF4F0BDE8F0871C4890F800A086
:100F3000BAF1000F0BD0C9F800200A6842F0020293
:100F40000A603E70007810B1187878B10AE0D8F8DD
:100F50000000B0FBF4F0BDE8F08742F21070F8E753
:100F6000187818B1BCFBF4F0BDE8F087B5FBF4F0DD
:100F7000BDE8F087FFF794FAEBE70948E9E70020BE
:100F8000BDE8F08700040140500401400080204289
:100F90003C86204210000020008920420489204223
:100FA00000366E012DE9F0410C460546FFF762FD63
:100FB0000646FFF739FD002C14BF4FF0010C4FF02F
:100FC000000CA84218BF344F62D038683968C9B2E3
:100FD0000A2914D2DFE801F0050B13130B051313D4
:100FE0000B054FF6F07108402C49084306E04FF618
:100FF000F071084040F0AD7040F0D0403860002AF9
:1010000046D0274991F8A00040B1BCF1000F01D0B3
:10101000641E11D091F8A0000028F6D13868C3B240
:10102000102B1CD00BDC0A2B19D2DFE803F0182898
:1010300018181828181818280020BDE8F081182B57
:101040000DD006DC112B1AD0142B08D0152B16D07E
:1010500005E0192B13D0202B08BF022300D000235A
:10106000AB42B2D1FFF706FDB04211D0012E08D03D
:10107000BDE8F04102200122002100F013B8012355
:10108000EEE7BDE8F04101200246002100F00AB879
:101090000120BDE8F08100000000014001005A6914
:1010A00000002042F0B50D460446FFF7E3FC014680
:1010B0008C4251D02D4F38682E1CC0B218BF01266B
:1010C000A14249D03B680A2833D2DFE800F0271458
:1010D0003232050D3232050D4FF6F070184040F0F7
:1010E000AD7040F0D04023E04FF6F07003EA00010D
:1010F0001F4808431CE0012C02D0022C07D018E046
:101100004FF6F0701B4918400843386011E04FF665
:10111000F07019491840084338600AE0012C02D0E9
:10112000022C1BD005E04FF6F0701840134919E06F
:1011300038608AB1124890F8A01031B10EB16D1E1E
:1011400012D090F8A0100029F8D1FFF793FC0146C7
:101150003868A142C0B2B5D10120F0BD4FF6F070A1
:10116000084918400843E3E70020F0BD00000140B3
:1011700001005A6905005A6909005A6904005A6950
:101180000000204208005A697047000010B5FFF7C0
:101190003FFA0649B0FBF1F0054908704FF0E02036
:1011A000016941F00401016110BD000040420F00DF
:1011B0000000002030B504464FF47A7503E028465D
:1011C00000F004F8641E002CF9D130BD0B490978F9
:1011D00048434FF0E021486100238B61086940F0EB
:1011E000010008610869C20701D0C003FAD5086987
:1011F00020F0010008618B617047000000000020B2
:1012000010B50446C1B20248FFF739FE204610BDB2
:1012100000100040012540F2F314FFF7B3FCFFF784
:10122000B5FF302144F61F60FFF78EFD40F6C3176F
:1012300026464FF080484FF41679641C00E0641E87
:10124000A4B2BC4201D1002502E0B44203D1012581
:101250003220FFF7AFFF224606214046FFF706FE89
:101260004846FFF7B3FF002DE7D1E8E7028822F0F8
:10127000C0020280028C22F0070202844FF0FF338A
:101280000E293CD00BDC0D2928BF7047DFE801F0A8
:10129000241B1B33253333332C243724370011F020
:1012A000030F18BF70474FEAA102A2F104020D2AF2
:1012B00028BF7047DFE802F0232B2B2B2B103210B6
:1012C00032103210320002886FF03F0303EB8111BD
:1012D00011430180002101847047018841F08001A1
:1012E0000180002101847047018841F0C001018024
:1012F00000210184704702880280491E05E00288AF
:1013000042F04002028003EB5101018470470288E1
:1013100042F08002028003EB9101F6E7028842F07E
:10132000C002028003EBD101EFE74FF04070E1EE25
:10133000100A70475413000000000020480000000D
:10134000800100009C1300004800002060020000A3
:101350009C010000000000000000000000000000F0
:10136000000000000000000000000000000000007D
:10137000004C0040014C0040204C0040214C0040FB
:10138000404C0040414C0040604C0040614C0040EB
:0C139000804C0040814C0040204D00408B
:0400000500000145B1
:00000001FF
