:020000040000FA
:10000000A0020020E5010000ED010000EF0100006A
:10001000F1010000F3010000F50100000000000004
:10002000000000000000000000000000F7010000D8
:10003000F901000000000000FB010000FD010000CC
:10004000FF010000FF010000FF010000FF010000B0
:10005000FF010000FF010000FF010000FF010000A0
:10006000FF010000FF010000FF010000FF01000090
:10007000FF010000FF010000FF010000FF01000080
:10008000FF010000FF010000FF010000FF01000070
:10009000FF010000FF010000FF010000FF01000060
:1000A000FF010000FF010000FF010000FF01000050
:1000B000FF010000FF010000FF010000FF01000040
:1000C000FF010000FF010000FF010000FF01000030
:1000D000FF010000FF010000FF010000FF01000020
:1000E000FF01000000000000000000000000000010
:1000F0000000000000000000000000000000000000
:1001000000000000000000000000000000000000EF
:1001100000000000000000000000000000000000DF
:1001200000000000000000000000000000000000CF
:1001300000000000000000000000000000000000BF
:100140000000000000F002F800F03CF80AA090E87F
:10015000000C82448344AAF10107DA4501D100F082
:1001600031F8AFF2090EBAE80F0013F0010F18BF13
:10017000FB1A43F0010318470C0C00002C0C000084
:10018000103A24BF78C878C1FAD8520724BF30C8C3
:1001900030C144BF04680C60704700000023002495
:1001A00000250026103A28BF78C1FBD8520728BF87
:1001B00030C148BF0B6070471FB500F0DDFD1FBDAB
:1001C00010B510BD00F031F81146FFF7F5FF00F053
:1001D000C5FD00F04FF803B4FFF7F2FF03BC00F0D9
:1001E00081FD00000948804709480047FEE7FEE717
:1001F000FEE7FEE7FEE7FEE7FEE7FEE7FEE7FEE7D7
:1002000004480549034A054B704700007D0900007A
:1002100045010000A0000020A0020020A000002056
:1002200070477047704770477047754600F02CF86C
:10023000AE4605006946534620F00700854618B0D3
:1002400020B5FFF7DDFFBDE820404FF000064FF07E
:1002500000074FF000084FF0000B21F00701AC46FB
:10026000ACE8C009ACE8C009ACE8C009ACE8C0091A
:100270008D46704710B50446AFF300802046BDE8B8
:100280001040FFF7A8BF0000004870473C00002066
:1002900070B5524E82B03068514D00F4E020B0F598
:1002A000403F08BF4F4C1AD00EDC002808BF4E4C10
:1002B00015D0B0F5803F08BF4C4C10D0B0F5003FD2
:1002C00008BF4B4C0BD009E0B0F5802F08BF494C5C
:1002D00005D0B0F5A02F08BF2C4600D000246B46F7
:1002E00001AA0021032000F0EBFA0198002850D069
:1002F000414B18694228306842D9C0F3090111F412
:10030000007F18BF41F47E4000D001B2B9B33B4832
:10031000AC4241D11A69422A3ED990F8D80000284F
:10032000009819BF90ED0F0A426A90ED070A4268E3
:10033000186901EE101A4228C2F54070B8EEC11AD1
:10034000B7EE002AF0EE420A60EE011A01EE100A42
:10035000B8EEC11A40EE010A2AD902B081EEA00A15
:10036000F0EE420A70EEC00A00EE104AB8EE400A03
:1003700080EE201ABCEEC10A10EE100A70BD08E033
:10038000C0F30C0111F4805F18BF41F47040BCD180
:10039000BCE702B0204670BD90F8D8000028009855
:1003A00019BF90ED0E0A026A90ED060A0268BFE7D7
:1003B000B2EE000A02B020EE801AF0EE420A81EEA0
:1003C000810A70EEC00A00EE104AB8EE400A80EED4
:1003D000201ABCEEC10A10EE100A70BD04040140E0
:1003E000006CDC02001BB70060E31600C0C62D00E5
:1003F000808D5B0000366E010010200000802042DE
:1004000004490868096800F0070001F4E0210903C5
:1004100000F0F0BA08040140DFF8DCC030B446F662
:100420005A13CCF80030354D354BDFF8D8C00124D5
:1004300004283DD007DC012808BF33480BD0334BDC
:10044000022817D053E0324B082821D01A1DB0F1F2
:10045000805F3CD04BE00378002BFCD0120942EACD
:1004600001212A6822F0072211432960017800291E
:10047000FCD03CE018780028FCD041EA1230296812
:1004800021F007110843286018780028FCD02EE0DE
:1004900018780028FCD042EA0110296821F0700188
:1004A00021F0E0410843286018780028FCD01EE0C5
:1004B00018780028FCD0100A40EA0110296821F0C1
:1004C00070110843286018780028FCD00FE01078DD
:1004D0000028FCD0002904BF00208CF8300103D094
:1004E000022908BF8CF8304110780028FCD08CF825
:1004F000004030BC70470000000401400804014087
:10050000E886204200802042E0862042E4862042A5
:10051000EC862042014AC2E9001070470400002026
:10052000002100F001B800002DE9F0470C464049D9
:10053000064646F65A10086000F0BCF900F00107C4
:10054000012000F0A7F93B4802683B48A2F574215E
:10055000A1F51071814228D93848111838488142D4
:1005600098BF4FF4801221D936481118364881427D
:1005700098BF4FF4001219D934491144814298BFF1
:100580004FF4401212D932491144814298BF4FF4BE
:1005900080020BD92F491144814203D92E491144BD
:1005A000814202D84FF4A00200E00022002C14BFC8
:1005B000012500250121294B83F8C0112848D0F8D6
:1005C00000C02CF4E00C4CEA020CC0F800C04FF064
:1005D0000008002E14BF83F8E41183F8E48183F847
:1005E000E011DFF880C09CF80000002818BF1E480A
:1005F00008D00DB1641E05D001709CF80090B9F1CF
:10060000000FF6D166B11970384600F04BF925B1EC
:10061000002C04BF0020BDE8F0870120BDE8F08772
:10062000002A14BF83F8C01183F8C081EBE70000F3
:100630000004014004000020C0C62D00FFF6C2FFE8
:10064000FF083D00FFED85FFFF117A00FFDB0BFF88
:10065000FFC991FEFFB717FEFFA59DFD0080204258
:100660000C04014004892042048A2042002100F049
:1006700001B800002DE9F0470C462649064646F62B
:100680005A10086000F016F900F00107012000F090
:1006900001F9B6F5007F0CBF01200020002C14BF2B
:1006A000012500251C4BDFF874C00121002818BF6C
:1006B0008CF8A41106D11A6842F003021A600022D5
:1006C0008CF8A4218CF8A011DFF8548098F8002051
:1006D000002A18BF134A08D00DB1641E05D011704E
:1006E00098F80090B9F1000FF6D120B9186820F001
:1006F0000300304318608CF80010384600F0D2F840
:1007000025B1002C04BF0020BDE8F0870120BDE822
:10071000F0870000000401400C04014000802042EA
:1007200000892042008A2042094A48B1012818BFA6
:100730007047506920F4704040EA013050617047C2
:10074000106920F4704040EA0130106170470000E9
:1007500000100140064A52F8200042898A43428133
:1007600082898A4382818288114381807047000098
:100770000C000020104B53F8200083880B4383802B
:10078000012A0BD0022A10D0032A18BF70474289D1
:100790000A434281828911438181704742890A4319
:1007A0004281828922EA0101F6E742898A43428135
:1007B00082891143818170470C00002010B501210E
:1007C0000846FFF7C7FF07210220FFF7C3FF0548D0
:1007D000002180F8401080F8601080F8641080F8E4
:1007E000681010BD00800942034810F8401F81F0D6
:1007F0000101017070470000008009421148006843
:10080000C0B2102819D008DC0A2816D2DFE800F0A0
:100810001517151515171515151718280DD006DC01
:1008200011280CD0142808D0152808D005E0192864
:1008300005D0202804BF0220704700207047012007
:1008400070470000000001400F480068C0B2102847
:1008500017D008DC0A2814D2DFE800F013131313B2
:100860000F0F13131111113809280AD2DFE800F015
:100870000909090505090907070001207047022039
:100880007047002070470000000001400122002155
:1008900000F036B902494A6822EA00004860704711
:1008A000003004E002494A68104348607047000085
:1008B000003004E00148406870470000003004E068
:1008C00030B4DFF844C0114D0BE0844203D100295D
:1008D00018BF491E0BD0DCF804400CEB840C0CF163
:1008E000080CDCF80040844218BFAC42EDD18442D1
:1008F00006BFDCF8040080000020106008BF0CF187
:100900000800186030BC7047041020001DE1D00BB7
:10091000184910B54FF4B540088001220C210B2076
:10092000FFF728FF012203210B20FFF723FF1249C5
:100930004FF40040FFF7EEFD0120FFF7A7FF012174
:100940000020FFF7F1FE01210846FFF7EDFE002031
:10095000FFF7E6FD0320FFF789FE002205210220B4
:10096000FFF75AFD00220521BDE810400820FFF7DF
:1009700053BD00000C480040006CDC0212480168C6
:1009800041F47001016011494FF4B54008801049ED
:10099000802048610F4846F65A110160021D4FF44D
:1009A00080311160111D0A6822F00712D21C0A6002
:1009B000002101600848016921F0300101614169AD
:1009C00021F030014161704788ED00E00C480040A3
:1009D000003004E000040140001001400449088890
:1009E000C0B240F0800000F5B440088070470000BD
:1009F0000C4800402DE9F04731F0704216D109173C
:100A0000082913D2DFE801F0120406080A0C0E10C0
:100A100002240CE004240AE0082408E0102406E084
:100A2000202404E0402402E0802400E00124012688
:100A3000DFF8AC902B492C4F2C4BF503DFF8B0803E
:100A400046F65A124FF4FA3C062846D2DFE800F088
:100A500003333640431B274890F800A0BAF1000F3B
:100A60000BD0C9F800200A6842F001020A603E700B
:100A7000007810B1187838B322E0D8F80400B0FB41
:100A8000F4F0BDE8F0871C4890F800A0BAF1000F20
:100A90000BD0C9F800200A6842F002020A603E70DA
:100AA000007810B1187878B10AE0D8F80000B0FBEF
:100AB000F4F0BDE8F08742F21070F8E7187818B14A
:100AC000BCFBF4F0BDE8F087B5FBF4F0BDE8F087BF
:100AD000FFF7DEFBEBE70948E9E70020BDE8F08718
:100AE0000004014050040140008020423C86204226
:100AF00004000020008920420489204200366E0153
:100B00002DE9F0410C460546FFF79EFE0646FFF72D
:100B100075FE002C14BF4FF0010C4FF0000CA842E2
:100B200018BF344F62D038683968C9B20A2914D264
:100B3000DFE801F0050B13130B0513130B054FF63C
:100B4000F07108402C49084306E04FF6F071084068
:100B500040F0AD7040F0D0403860002A46D02749C0
:100B600091F8A00040B1BCF1000F01D0641E11D07B
:100B700091F8A0000028F6D13868C3B2102B1CD021
:100B80000BDC0A2B19D2DFE803F0182818181828F4
:100B9000181818280020BDE8F081182B0DD006DCAD
:100BA000112B1AD0142B08D0152B16D005E0192BB9
:100BB00013D0202B08BF022300D00023AB42B2D1B8
:100BC000FFF742FEB04211D0012E08D0BDE8F0413F
:100BD00002200122002100F013B80123EEE7BDE856
:100BE000F04101200246002100F00AB80120BDE8D2
:100BF000F08100000000014001005A69000020421D
:100C0000F0B50D460446FFF71FFE01468C4251D059
:100C10002D4F38682E1CC0B218BF0126A14249D002
:100C20003B680A2833D2DFE800F027143232050D82
:100C30003232050D4FF6F070184040F0AD7040F0C4
:100C4000D04023E04FF6F07003EA00011F4808434C
:100C50001CE0012C02D0022C07D018E04FF6F070F7
:100C60001B4918400843386011E04FF6F0701949ED
:100C70001840084338600AE0012C02D0022C1BD037
:100C800005E04FF6F0701840134919E038608AB15A
:100C9000124890F8A01031B10EB16D1E12D090F82C
:100CA000A0100029F8D1FFF7CFFD01463868A14216
:100CB000C0B2B5D10120F0BD4FF6F0700849184020
:100CC0000843E3E70020F0BD0000014001005A693D
:100CD00005005A6909005A6904005A690000204257
:100CE00008005A697047000010B5FFF789FB0649F4
:100CF000B0FBF1F0054908704FF0E020016941F0C8
:100D00000401016110BD000040420F0000000020FE
:100D100030B504464FF47A7503E0284600F004F835
:100D2000641E002CF9D130BD0B49097848434FF0BF
:100D3000E021486100238B61086940F001000861EF
:100D40000869C20701D0C003FAD5086920F0010084
:100D500008618B617047000000000020FFF73EFE35
:100D6000FFF7D6FDFFF7C0FFFFF728FDFFF73CFDBB
:100D70006420FFF7CDFFF9E74FF04070E1EE100A75
:100D800070470000A40D0000000000203C0000009F
:100D900080010000E00D00003C0000206402000023
:100DA0009C010000000000000000000000000000A6
:100DB00000000000004C0040014C0040204C00406E
:100DC000214C0040404C0040414C0040604C0040F1
:100DD000614C0040804C0040814C0040204D004060
:0400000500000145B1
:00000001FF
